:100000000C942A000C9434000C9434000C943400AA
:100010000C9434000C9434000C9434000C94340090
:100020000C9434000C9434000C9434000C94340080
:100030000C9434000C9434000C9434000C94340070
:100040000C9434000C9434000C9434000C94340060
:100050000C94340011241FBECFE5D8E0DEBFCDBF25
:100060000E9436000C94A6030C9400000E943A02F1
:10007000FFCFFC0182E08BB988E18AB98081918150
:10008000039711F4529A01C052989281892F829558
:10009000880F807E9481990F990F990F982B9668FD
:1000A0008081880F880F982B90BD86819781A085CD
:1000B000B185880F991FAA1FBB1F880F991FAA1F00
:1000C000BB1F9C01AD01220F331F441F551F60E071
:1000D00072E18AE790E00E9444032150310930BD6B
:1000E00029B908955D9BFECF8CB908955F9BFECF23
:1000F0008CB108950F931F93CF93FC0180818823C7
:1001000059F08F01C0E00E947200CF5FF801EC0F40
:10011000F11D80818111F7CFCF911F910F9108952B
:10012000EF92FF920F931F93CF937C010E94760072
:10013000F7018083833261F0C0E0CF5F87010C0F4D
:10014000111D0E947600F80180838332B1F701C04F
:100150008701F8011082CF911F910F91FF90EF90CE
:100160000895683008F073C0843008F070C08130A2
:1001700009F130F08230C1F1833009F44FC00895A5
:100180004130510559F42AB381E090E002C0880F54
:10019000991F6A95E2F7822B8ABB08952AB381E002
:1001A00090E002C0880F991F6A95E2F7809582233C
:1001B0008ABB08954130510559F427B381E090E09E
:1001C00002C0880F991F6A95E2F7822B87BB0895BA
:1001D00027B381E090E002C0880F991F6A95E2F78B
:1001E0008095822387BB08954130510559F424B38B
:1001F00081E090E002C0880F991F6A95E2F7822B98
:1002000084BB089524B381E090E002C0880F991F59
:100210006A95E2F78095822384BB089541305105A9
:1002200059F421B381E090E002C0880F991F6A95CC
:10023000E2F7822B81BB089521B381E090E002C0F8
:10024000880F991F6A95E2F78095822381BB0895F4
:10025000683008F06FC0843008F06CC0813001F164
:1002600030F08230B1F1833009F44CC00895413050
:1002700059F42BB381E090E002C0880F991F6A9572
:10028000E2F7822B8BBB08952BB381E090E002C094
:10029000880F991F6A95E2F7809582238BBB08959A
:1002A000413059F428B381E090E002C0880F991FD3
:1002B0006A95E2F7822B88BB089528B381E090E02D
:1002C00002C0880F991F6A95E2F78095822388BB48
:1002D0000895413059F425B381E090E002C0880FC1
:1002E000991F6A95E2F7822B85BB089525B381E0BB
:1002F00090E002C0880F991F6A95E2F780958223EB
:1003000085BB0895413059F422B381E090E002C0EA
:10031000880F991F6A95E2F7822B82BB089522B35A
:1003200081E090E002C0880F991F6A95E2F78095FE
:10033000822382BB0895683070F5843070F5813077
:1003400079F028F08230A9F08330E1F028C089B339
:1003500090E002C0959587956A95E2F781700895BF
:1003600086B390E002C0959587956A95E2F7817013
:10037000089583B390E002C0959587956A95E2F75A
:100380008170089580B390E002C0959587956A9535
:10039000E2F78170089580E0089580E0089580E09C
:1003A0000895843078F4813041F028F0823039F0BB
:1003B000833039F008956ABB089567BB089564BB24
:1003C000089561BB0895843078F4813041F028F0BD
:1003D000823039F0833039F008956BBB089568BBE3
:1003E000089565BB089562BB0895843080F4813020
:1003F00041F028F0823039F0833039F00AC089B3F7
:10040000089586B3089583B3089580B3089580E076
:10041000089580E00895CF93C82F40E064E083E022
:100420000E9428018FEC97E00197F1F700C00000CF
:1004300041E065E083E00E9428018FEC97E001979E
:10044000F1F700C000006C2F82E00E94E3018FEC06
:1004500097E00197F1F700C0000040E065E083E01D
:100460000E9428018FEC97E00197F1F700C000008F
:10047000CF91089541E050E064E083E00E94B10034
:1004800041E050E065E083E00E94B1008FE39CE929
:100490000197F1F700C000006FEF70E082E00E946A
:1004A000D10188E30E940B028CE00E940B0281E0E4
:1004B0000E940B020895CF93C82F41E064E083E0CF
:1004C0000E9428018FEC97E00197F1F700C000002F
:1004D00041E065E083E00E9428018FEC97E00197FE
:1004E000F1F700C000006C2F82E00E94E3018FEC66
:1004F00097E00197F1F700C0000040E065E083E07D
:100500000E9428018FEC97E00197F1F700C00000EE
:10051000CF9108950F931F93CF93FC01808188237F
:1005200059F08F01C0E00E945B02CF5FF801EC0F31
:10053000F11D80818111F7CFCF911F910F91089507
:10054000813041F028F0823041F0833049F00AC018
:10055000962F08C090E4960F05C090E1960F02C058
:1005600090E5960F892F80680E940B020895CF9323
:10057000DF93EA010E94A002CE010E948A02DF916D
:10058000CF910895CF93DF93CDB7DEB760970FB6C5
:10059000F894DEBF0FBECDBF4AE050E0BE016F5FF2
:1005A0007F4F0E946603CE0101960E948A026096E8
:1005B0000FB6F894DEBF0FBECDBFDF91CF91089587
:1005C00081E00E940B0208951F93CF93DF9340E0D8
:1005D00050E064E081E00E94B10040E050E065E05E
:1005E00081E00E94B10040E050E066E081E00E94BE
:1005F000B10040E050E067E081E00E94B10040E0DF
:1006000050E062E083E00E94B10040E050E063E02F
:1006100083E00E94B10040E050E064E083E00E948B
:10062000B10040E050E065E083E00E94B100D0E01E
:1006300014E01D0F41E050E0612F81E00E94B10005
:1006400040E0612F81E00E942801C0E062E06C0F71
:1006500083E00E949B01811106C0CF5FDD0FDD0F9B
:100660008C2F8D0F0DC0CF5FC43081F740E050E07C
:10067000612F81E00E94B100DF5FD430C9F6D7CF8F
:10068000DF91CF911F910895A1E21A2EAA1BBB1BE7
:10069000FD010DC0AA1FBB1FEE1FFF1FA217B3074E
:1006A000E407F50720F0A21BB30BE40BF50B661F64
:1006B000771F881F991F1A9469F760957095809528
:1006C00090959B01AC01BD01CF01089545325105C4
:1006D00020F4423010F00C947103FB011082CB0126
:1006E0000895BB274A3031F4992322F4BDE2909556
:1006F00081959F4F0C947D03BB27FB015527AA27AB
:10070000880F991FAA1FA41710F0A41B839550519E
:10071000B9F7A05DAA3308F0A95DA193009779F716
:10072000B111B1931192CB010C949603DC01FC0141
:10073000672F71917723E1F7329704C07C916D9315
:1007400070836291AE17BF07C8F30895F894FFCF86
:00000001FF
